:020000040800F2
:10000000503C002001010008C93C0008092C0008F0
:100010002D3C0008C30B0008DD7000080000000044
:10002000000000000000000000000000796A0008E5
:10003000710D000800000000C30A0008054B00080D
:100040001B0100081B0100081B0100081B01000820
:100050001B0100081B0100081B0100081B01000810
:100060001B0100081B0100081B0100081B01000800
:100070001B0100081B010008590D0008650D000850
:100080001B0100081B0100081B0100081B010008E0
:100090001B0100081B0100081B0100081B010008D0
:1000A0001B0100081B0100081B0100081B010008C0
:1000B0001B0100081B010008DD6A0008192C00085C
:1000C0000D2C00081B0100081B0100081B01000883
:1000D0001B010008D17000081B0100081B0100086B
:1000E0001B0100081B0100081B010008DFF80CD0F1
:1000F00000F056FC00480047218C0008503C0020CE
:100100000648804706480047FEE7FEE7FEE7FEE7B1
:10011000FEE7FEE7FEE7FEE7FEE7FEE7D96A000836
:10012000ED00000872B6704762B67047EFF31080BA
:1001300072B6704780F31088704730BF704720BF99
:100140007047B0FA80F0704790FAA0F0B0FA80F0F3
:10015000704790FAA0F070472DE9F0410024061B8B
:10016000254671F1000605DA01240027D0EB0700CF
:1001700067EB0101161E73F1000605DA0027D2EBCA
:100180000702012567EB030300F00CFB86460E46D1
:1001900017469C46AC4204D00025D0EB050E65EB1B
:1001A000010624B10020D2EB000760EB030C70467F
:1001B00031463A466346BDE8F081202A04DB203A06
:1001C00021FA02F00021704721FA02F3D040C2F177
:1001D00020029140084319467047D2B201E000F86E
:1001E000012B491EFBD270470022F6E710B51346DB
:1001F0000A4604461946FFF7F0FF204610BD30B509
:1002000004460020034600E05B1C934203D2E05CFE
:10021000CD5C401BF8D030BDF0B480EA0102D40FB1
:100220004200B2EB410F02D20246084611464A0094
:1002300042D0C30DDDB2C1F3C752AD1A202D35DA5D
:10024000C1F3160141F4000204B15242C5F1200687
:1002500002FA06F12A411044B3EBD05F23D0C4B1B7
:10026000012DA0EBC35009DCF0BC4FF0004202EAC4
:10027000C352DBB200F5000000F0EFBA400000F11D
:10028000807000EBC350A0F1807040EAD17049004B
:1002900009E0490841EAC071A0EBC35000F5000035
:1002A000400800EBC350F0BC00F0CEBA614201221E
:1002B00002EB4101001BF6E7F0BC704781F0004102
:1002C000AAE780F00040A7E780EA010210B502F03B
:1002D0000043400022D04A001FD0010E01EB126102
:1002E000C0F35600C2F3560240F4000042F400028C
:1002F000A0FB022000047F39140400D0401C50EA07
:10030000124001D44000491EC2B20C0604EBD010CA
:10031000401C4008802A02D003E0002010BD20F0DD
:100320000100002900DA0020184310BD30B480EA33
:10033000010202F0004530F0004221F0004013D0ED
:1003400090B1C30DD40DC2F31601C0F31600E41A28
:1003500041F4000140F400027D34914201D3641C59
:1003600000E04900002C02DA30BC002070474FF456
:1003700000000023914201D3891A034340084FEA49
:100380004101F7D151B1914202D14FF0004105E056
:1003900002D24FF0010101E06FF0010103EBC45004
:1003A000284430BC00F050BA420005D0C0F3C75218
:1003B0005242914201DC0020704700EBC15070476F
:1003C0002DE9FE4F804681EA0300C00F0C460090E5
:1003D00021F0004123F00045B8EB0200A94105D20D
:1003E0004046214690461C460B46024623F00040FC
:1003F000104347D0270DC7F30A00C3F30A510290F8
:10040000401A019040286BDAC3F3130040F4801BBC
:100410000098924620B10023D2EB030A63EB0B0B4A
:1004200001985946C0F14002504600F0ECF90646EA
:100430000D4650465946019A00F0F4F910EB0800B9
:100440006141002487EA115284EAE7731A4340D0DD
:10045000009A62B3019A012A4FEA075215DC001B89
:1004600061EB02014FF0004202EA0752CDE900427F
:10047000001C41F5801132462B4600F02BFA03B0E8
:10048000BDE8F08F40462146F9E7001B61EB020111
:10049000001C41F5801300185B412018A2F50017DD
:1004A00047EB030140EAD570B6196D4111E06D08C4
:1004B0004FEA360645EAC0754FEA0752001B61EB6A
:1004C0000201001C41F5801149084FEA3000001973
:1004D000514132462B4603B0BDE8F04F00F0EBB976
:1004E0000098012240000023D0EB020263EBE0738E
:1004F000009821464FEAE074B8EB000061EB04017C
:10050000E9E783F000435BE781F0004158E72DE91C
:10051000FE4F81EA030404F0004421F000410094FE
:100520004FF0000B23F0004350EA01045ED052EA82
:1005300003045BD0C3F30A54C1F30A552C44A4F25C
:10054000F3340194A0FB0254C1F3130141F4801170
:10055000C3F3130343F4801301FB024400FB034E77
:10056000840A970A44EA815447EA8357A4FB076840
:1005700002958D0A05FB07854FEA932C04FB0C546A
:100580002705029D4FEA065847EA1637B5EB0805DE
:100590006EEB070C870E920E47EA811742EA831230
:1005A000A7FB0201B6EB0B0164EB00042B0D43EA41
:1005B0000C335E1844EB1C50DA465146E7FB02014F
:1005C000C5F313044FEA0B3343EA14534FEA0432E2
:1005D000019C43EA0603A4F10C040294009CCDE9BB
:1005E00000B400F077F903B0BDE8F08F00200146B9
:1005F000F9E72DE9F04D81EA030404F0004B21F006
:10060000004514464FF0000A23F0004150EA05026D
:1006100020D054EA01021DD0C5F30A570246C5F3A3
:100620001303C1F31300C1F30A5640F4801543F4D9
:100630008013A7EB0608101BD64608F2FD3873EBB3
:10064000050002D308F1010801E092185B41B8F1FE
:10065000000F03DA00200146BDE8F08D00204FF4C2
:100660008011064684460EE0171B73EB050705D381
:10067000121B63EB050306434CEA010C49084FEAE1
:10068000300092185B4150EA0107EDD152EA0300B5
:1006900012D082EA040083EA0501084305D0101B4A
:1006A000AB4106D20122002306E000224FF00043B6
:1006B00002E06FF0010253101AEB06004CEB0851F8
:1006C00010EB0A0041EB0B01BDE8F04D00F0F3B870
:1006D000C10F80EAE0700844CA079623002100F0A9
:1006E000BCB896230022114600F0B7B800F00042D3
:1006F00020F00040C10DC0F3160040F400007F2937
:1007000001DA00207047962903DCC1F19601C84048
:1007100001E096398840002AF4D04042704720F02A
:100720000040C10DC0F3160040F400007F2901DA3B
:1007300000207047962903DCC1F19601C84070473C
:1007400096398840704700F0004230F000400AD0EF
:10075000C10D01F56071C0F3160042EA0151C208F3
:1007600040071143704700200146704701F00043E5
:1007700030B421F0004150EA010206D00A0DA2F582
:100780006072C1F31301002A02DC30BC0020704704
:10079000440F44EAC104C100E01830BC00EBC25071
:1007A00000F052B82DE9F05F0546002092469B46C6
:1007B00088460646814640241BE028464146474677
:1007C0002246FFF7FAFC53465A46C01A914110D30D
:1007D00011461846224600F016F82D1A67EB01085C
:1007E0004F4622460120002100F00DF817EB0009CA
:1007F0004E41201EA4F10104DFDC484631462A4662
:100800004346BDE8F09F202A04DB203A00FA02F1BB
:10081000002070479140C2F1200320FA03F31943EE
:1008200090407047202A06DBCB17203A41FA02F0AD
:1008300043EAE07306E041FA02F3D040C2F120023D
:1008400091400843194670470029A8BF7047401CD3
:10085000490008BF20F00100704710B4B0FA80FCD6
:1008600000FA0CF050EA010404BF10BC704749B113
:10087000CCF1200421FA04F411FA0CF118BF012183
:1008800021430843A3EB0C01CB1D4FEA00614FEA63
:10089000102042BF002010BC704700EBC350104432
:1008A0000029A4BF10BC7047401C490008BF20F0BD
:1008B000010010BC704710B5141E73F1000408DA73
:1008C000401C41F1000192185B411A4301D120F014
:1008D000010010BD2DE9F04D92469B4611B1B1FAD1
:1008E00081F202E0B0FA80F220329046FFF78BFFEF
:1008F00004460F4640EA0A0041EA0B0153465A46B5
:10090000084313D0114653EA010019D0C8F1400240
:100910005046FFF752FC05460E46504659464246A1
:10092000FFF771FF084305D0012004E02046394657
:10093000BDE8F08D0020054346EAE0762C433743BE
:100940000A986305E40AA0EB08000022FD0A44EAC5
:1009500047540A3002D500200146E9E70105101985
:100960006941DDE9084500196941BDE8F04DA2E79C
:1009700070B521F0004303430CD0C1F30A550024A5
:10098000D5EB040564EB0403D617AD1AB34102DBC3
:100990000020014670BD201841EB025170BD0000DF
:1009A000064C074D06E0E06840F0010394E80700BC
:1009B00098471034AC42F6D3FFF79CFBC0AB00085D
:1009C000E0AB00082DE9F04D00231A461B1A8A41BE
:1009D00003DB00200146BDE8F08DC1F30A52C1F3EC
:1009E000130141F480154FF0000BD10702D100181C
:1009F0006D41521E0027044640F2FF11384601EBBC
:100A0000620A3E468046024600204FF48011FFF7FE
:100A1000D4FBC2197141BB1846EB0100B4EB030CC7
:100A200075EB000C04D3E41A65EB000517460E467F
:100A3000241908F101006D4180463428E3DDF919DD
:100A400046EB0600091BA84103D24FF0FF321346C4
:100A500001E0002213461BEB070046EB0A51BDE8FC
:100A6000F04DFFF728BF30B58C1810F8012B12F0AD
:100A70000F0301D110F8013B120906D110F8012B28
:100A800003E010F8015B01F8015B5B1EF9D101E0A6
:100A900001F8013B521EFBD1A142E6D3002030BD3C
:100AA00018484FF0FF010170002080F309881648B4
:100AB000016881F3088815484FF08051016062B6E3
:100AC000FEE772B6EFF3098028B1203880E8F00F16
:100AD0000F490968086000B50E4880475DF804EBCF
:100AE0000D480E490A78027009480D490A680260EB
:100AF000106890E8F00F203080F309884EF0040E63
:100B000062B6704722ED00E0C800002004ED00E06E
:100B100098010020F147000826010020270100204D
:100B20009C010020FFB42348AA2100240170FF216A
:100B30004170F12181709DF8001001719DF8011044
:100B400041719DF8041081719DF80510C1719DF8E7
:100B5000081001729DF8091041729DF80C10817205
:100B60009DF80D10C1729DF8201001739DF82110A1
:100B700041739DF8241081739DF82510C1730C25D5
:100B80001022C570214623462D1D06E0C65C5B1C65
:100B90003444E4B22144C9B2DBB29D42F6D8845455
:100BA000521CFF23815404B00249F0BC0248521C7D
:100BB00001F0D0BFC00900209C08002001F002B95C
:100BC0007047FEE7054910B50020486000F0A6F820
:100BD00000F006F8BDE8104000F086B8A80000203C
:100BE0002DE9F041104D002427462C806C80AC602C
:100BF000EC606C61AC612C61FFF798FA80460026CE
:100C00006C6100F049F800F057F86869761C36040A
:100C10000744360CF4D0C5E904744046AC61BDE825
:100C2000F041FFF787BA0000A800002003490969D6
:100C3000884201D9401A704700207047A800002060
:100C400010B5FFF773FA04494C69FFF773FA2046B1
:100C5000BDE81040FFF7EABFA800002010B5FFF77D
:100C6000EFFF0446FFF762FA034A00215161FFF7E4
:100C700061FA204610BD0000A800002010B5FFF763
:100C800055FA04498C69FFF755FA2046BDE8104033
:100C9000FFF7CCBFA800002010B5064C2088401CF0
:100CA0002080608810B900F051F8A0606088401C76
:100CB000608010BDA800002010B50A4C6088401E5E
:100CC0000004000C60800CD100F040F8E060A168E6
:100CD000401A6169814200D26061A169814200D2FB
:100CE000A06110BDA800002010B5FFF71FFA044650
:100CF000FFF7D2FF1021054802F099FFFFF7DCFF54
:100D00002046BDE81040FFF715BA0000F2090020A8
:100D10000149486070470000A8000020094810B54C
:100D2000016841F08071016007480021416001685D
:100D300041F00101016001F045F8BDE81040FFF706
:100D4000E7BF0000FCED00E0001000E00148406853
:100D500070470000001000E0014800F07FB800007C
:100D600024090020014800F079B80000E0080020C4
:100D7000704772B6FEE710B590F8211000220229E4
:100D800005D00421816380F82020012010BD016876
:100D90000B6823F00E030B6001680B6823F001035E
:100DA0000B6090F84030C46B012101FA03F36360DB
:100DB00080F8211080F82020104610BD10B590F862
:100DC00021100024022903D00421816301243DE085
:100DD00001680A6822F00E020A6001680A6822F0BF
:100DE00001020A601A4A0168914201D1012121E001
:100DF000174A1432914201D110211BE0144A2832C3
:100E0000914201D1891515E0114A3C32914201D13C
:100E100089140FE00E4A5032914202D14FF48031D2
:100E200008E00B4A6432914202D14FF4801101E094
:100E30004FF08071064A083A5160012180F8211074
:100E4000002180F82010416B01B18847204610BD79
:100E50000800024090F82100704700002DE9F05F83
:100E6000C16B0C6801680B68D0F840C0042202FA1C
:100E70000CF2494DDFF824A1494E4A4FDFF828B162
:100E8000DFF828E122422CD05A072AD50A689206B8
:100E900003D40A6822F004020A600168A94201D161
:100EA000042219E0514501D1402215E0B14202D19E
:100EB0004FF4806210E0B94202D14FF480420BE05F
:100EC000594502D14FF4802206E0714502D14FF41A
:100ED000800201E04FF080622F4908394A60C16A00
:100EE0003BE04FF0020808FA0CF818EA040F4FF044
:100EF00000094FF0010235D05FEA837832D50B68E4
:100F00009B0605D40B6823F00A030B6080F82120B0
:100F10000168A94201D1022219E0514501D12022E4
:100F200015E0B14202D14FF4007210E0B94202D193
:100F30004FF400520BE0594502D14FF4003206E065
:100F4000714502D14FF4001201E04FF000721249D6
:100F500008394A6080F82090816A00291AD0BDE8DB
:100F6000F05F0847082505FA0CF5254212D01B074B
:100F700010D50B6823F00E030B6090F84010C36B84
:100F800002FA01F15960826380F8212080F82090F4
:100F9000016BE2E7BDE8F09F080002401C00024040
:100FA0003000024044000240580002406C00024001
:100FB00030B528B308C8134914221944B1FBF2F123
:100FC0008900C16310498163022141771A6843F6A1
:100FD000F0718A43D0E900142143D0E902452C4343
:100FE0002143046921434469214384692143114316
:100FF000196000214163012242770177084630BD24
:10100000012030BDF8FFFDBF0000024070B504466E
:1010100000F010F90546601C02D004480078044432
:1010200000F008F9401BA042FAD370BD1000002068
:101030002DE9F84FDFF8B891002409F1040A0AF10C
:10104000040B23460F270BF1040EC9E00125A54030
:101050002A40AA427DD1674ED1F804C0ACEB060805
:10106000B44532D014DCBCF1030F3AD009DCBCF13A
:10107000000F2AD0BCF1010F1CD0BCF1020F31D1FE
:101080001DE0BCF1110F17D0BCF1120F2AD119E0ED
:10109000B8F5881F19D006DCB8F5803F15D0B8F533
:1010A000801F1FD111E0B8F5001F0ED0B8F5041F46
:1010B00018D10AE0CB6815E0CB681B1D12E0CB68A5
:1010C00008330FE0CB680C330CE08B682BB1012B9D
:1010D0004FF0080303D0456104E0042302E00561FA
:1010E00000E00023FF2A01D8064601E000F10406D3
:1010F0004FEA840501D9A5F12005D6F8008007FA4A
:1011000005FC28EA0C0803FA05F548EA0508C6F8C4
:1011100000804D68ED0062D5374DAE6946F001069E
:10112000AE61AD6924F0030605F001050095334D6D
:1011300006EB050CDCF80850A607360F07FA06F890
:1011400025EA0805DFF8B880404503D14FF00008D4
:1011500017E044E0DFF8AC80404502D14FF00108D1
:101160000FE0DFF8A480404502D14FF0020808E00C
:10117000DFF89880404502D14FF0030801E04FF0BE
:10118000040808FA06F848EA0508CCF808804D6813
:10119000D9F80060ED034D4601D5164300E09643B3
:1011A0002E604D68DAF80060AD03554601D5164350
:1011B00000E096432E604D68DBF80060ED025D466E
:1011C00001D5164300E096432E604D68DEF80060BE
:1011D000AD02754601D5164300E096432E60641CAF
:1011E0000D682A46E5407FF431AFBDE8F88F000076
:1011F00000040140000011100010024000000140F6
:1012000000080140000C01400010014000140140A2
:101210008068084000D001207047C26821EA0203BC
:101220000A4043EA0241016170470AB10161704717
:101230000904FBE7014880687047000010000020A7
:10124000704770472DE9F041016804464A694E68CD
:1012500090F83E000025D743FA050BD4F243D2059F
:1012600008D46FF4807201254A6121680A6842F44B
:1012700000420A60B90508D4F143C90505D42268C3
:101280006FF4007145F002055161790525D4F143F1
:10129000C90522D4638D94F83D10226B202808D113
:1012A0003BB9212910D029290ED0282901D1212A82
:1012B0000AD022686FF48061516145F0040510285E
:1012C00006D0402804D008E0204602F07FF904E070
:1012D0002068016841F400710160380508D4F043CA
:1012E000C00505D421686FF4006045F00805486129
:1012F000002D07D0206C284320642046BDE8F04133
:1013000001F0EEBCBDE8F0812DE9F0470268002154
:101310005368C66A90F83E4090F83D50102C12D0A9
:10132000402C10D0046C002C7DD05469E443A607F7
:101330007AD4DE43B60577D4036C03B19169BDE876
:10134000F04702F01FB9976951694FF42A0CC9435D
:101350005FEAC1784FF02A4904D066452AD04E454D
:1013600028D010E0DE43B6050DD4C16A614501D135
:10137000012103E0C16A494501D10821C162BDE8EC
:10138000F04701F097BF0E0716D4DE43B60513D41D
:10139000416CC9B21161416B09B1896A29B9816B8C
:1013A000002907D0896A002904D00068416841F407
:1013B00000614160BDE8F0878E0706D4DE43B605C4
:1013C00003D4BDE8F04701F0C9BEFE43526876077A
:1013D0004FEA02521DD4002AECDB0A0608D4DA4395
:1013E000520505D4490705D5BDE8F04701F05ABEBE
:1013F0004907DFD4D9438905DCD4212D05D0402C01
:10140000D8D1BDE8F04701F09BBFBDE8F04701F03F
:1014100007BE002ACEDB4A060BD4DA43520508D4B5
:10142000490708D501E00DE00EE0BDE8F04701F006
:1014300083BD4907BED4D9438905BBD4BDE8F04775
:1014400001F011BD916970E7E10606D4D943890521
:1014500003D4BDE8F04702F0FBB82821212D27D0A6
:10146000292D25D0650655D4DD436D0552D464077A
:1014700052D590F83D30448D002C9BD01269446ABF
:101480002270426A521C4262428D521E4285428D37
:10149000002A8FD12A2B8DD10268536823F48063F0
:1014A00053602222026380F83D1000F00FFB81E7B9
:1014B000250623D4DD436D0520D4640720D590F89C
:1014C0003D30448D002CF2D0446A24781461426A85
:1014D000521C4262428D521E4285428D002AE6D144
:1014E000292BE4D10268536823F4806353602122DE
:1014F000026380F83D1000F0EAFA5BE76107D6D49A
:10150000D9438905D3D4418D0029D0D0416A0978C7
:1015100011610AE06107CAD4D9438905C7D4418D56
:101520000029C4D01169426A1170416A491C4162A4
:10153000418D491E41853DE77047000070B50400AC
:1015400025D094F83D00002520B984F83C50204671
:1015500000F07EFA242084F83D002068016821F024
:10156000010101602068016841F4004101602068C8
:10157000016821F40041016000F02AFC4D4A6168D5
:10158000914201D84C4900E04C49884201D20120E7
:1015900070BD4B492368B0FBF1F15E6826F03F0651
:1015A0000E435E606368934206D94FF496735943C5
:1015B0004FF47A73B1FBF3F12368491C1E6A26F0DD
:1015C0003F06314319626168914210D84900401EBC
:1015D000B0FBF1F2521CC2F30B02042A01D2042028
:1015E00022E0B0FBF1F0401CC0F30B001CE0A2684D
:1015F000F2B301EBC10303EB0116431EB3FBF6F399
:101600005B1C43F480431B0549D092B301EBC1023C
:1016100002EB0111401EB0FBF1F0401CC0F30B00C7
:1016200040F4804040F400402168CA694CF6FF73E2
:101630009A431043C861D4E9071001432068026847
:1016400022F0C00211430160D4E903010143206884
:10165000826848F2FF339A4311438160D4E905015F
:1016600008432168CA6822F0FF021043C86001E005
:101670000EE016E02068016841F001010160256478
:10168000202084F83D00256384F83E50002070BD82
:1016900001EB4106431EB3FBF6F35B1CB3E70120ED
:1016A000C2E701EB4101401EB0FBF1F0401CC0F36A
:1016B0000B00B7E7A086010080841E0000093D00F2
:1016C00040420F00704770477047704770470000F6
:1016D0002DE9FF4F83B00025DDE910799A46934646
:1016E0000446DDF848800095FFF7A4FD064694F80F
:1016F0003D0020287CD119230122854920460096EF
:1017000002F07AF80028F5D194F83C0001286FD057
:10171000012084F83C0020680168C90703D10168F2
:1017200041F0010101602068016821F4006101605D
:10173000222084F83D00402084F83E002564676242
:10174000A4F82A90608D20857248E062CDE9008679
:1017500053465A462046049901F042FE00287DD1A6
:10176000208DDFF8B491202768B1012814D0022819
:10177000206801681ED041F48061016020684169E1
:1017800080690090B6E02068416981690091016834
:1017900041F400710160ADE02068016821F48061CE
:1017A000016072B62068416981690091016841F465
:1017B00000710AE041F40061016072B6206841697D
:1017C00081690091016821F48061016062B691E055
:1017D000032868D801280CD0022843464FF00002A5
:1017E0004946204600960FD002F006F8B0BB10E044
:1017F0008BE032464146204602F07DF870BB2068FF
:101800000069616A08706CE001F0F6FF30BB72B6E7
:1018100034E02068016821F48061016072B62068BC
:101820000069616A0870606A401C6062208D401E19
:101830002085608D401E6085384846F2A8110068FA
:10184000B0FBF1F0C0EBC00000EB80000090401E48
:10185000009008D020684069C04300E029E04007BC
:101860000CD50098F3E744F8305F6773A5732069DF
:1018700040F02000206162B625731AE020680168FC
:1018800041F40071016020680069616A0870606A53
:10189000401C6062218D491E2185618D491E618534
:1018A00062B621681BE032464146204602F023F82A
:1018B00018B1012007B0BDE8F08F20680069616AA7
:1018C0000870606A401C6062218D491E2185618D0F
:1018D000491E618521684A69D24352070AD40969C1
:1018E0000170606A401C6062208D401E2085608D02
:1018F000401E6085208D00287FF46AAF84F83D701B
:1019000084F83E5084F83C50D4E70220D2E700002F
:10191000020010000000FFFF040001001C00002076
:101920002DE9FF4F83B09A46DDE9119793460446AF
:10193000DDF84080FFF77EFC054694F83D00202846
:101940007FD11923012240492046009501F054FF20
:10195000002876D194F83C00012872D0012084F848
:101960003C0020680168C90703D1016841F001010A
:1019700001602068016821F400610160212084F881
:101980003D00402084F83E0000262664C4F82480F0
:10199000A4F82A90608D20852C48E062CDE900757E
:1019A00053465A462046049901F098FD70B930E03C
:1019B0002A463946204601F0D1FF58B1206C042850
:1019C00004D12068016841F400710160012007B072
:1019D000BDE8F08F606A216800780861606A401C89
:1019E0006062218D491E89B22185628D521E6285F9
:1019F00022685369DB435B070BD469B1007810613F
:101A0000606A401C6062208D401E2085608D401EF3
:101A10006085208D0028CBD12A463946204601F02A
:101A2000C5FE0028CAD154F83D0B016841F400718D
:101A30000160202004F81E09E67766770020C6E7DB
:101A4000FFE70220C3E70000020010000000FFFFD4
:101A500010B586B0002100910191029103910068B8
:101A6000174988422AD1174CA06940F00800A061AC
:101A7000A069694600F008000490C0200090122080
:101A80000190032003901048FFF7D2FAE06940F478
:101A90000010E061E069002200F40010049011469B
:101AA0001F2000F0A7F81F2000F096F80022114632
:101AB000202000F09FF8202000F08EF806B010BD26
:101AC0000054004000100240000C01407047704775
:101AD000024881680278114481607047100000203C
:101AE000074810B5016841F010010160032000F0C3
:101AF000A1F80F2000F006F800F050F8002010BD0B
:101B00000020024030B505461F4887B0C16941F04A
:101B10000401C161C06906A900F00400009001A899
:101B200000F030F90498B0B100F052F940001749C4
:101B3000174AB0FBF1F11748491E0260416040F2BC
:101B4000E7320021C0E903218160816100F05CFB84
:101B5000040003D015E000F03BF9E8E70D4800F081
:101B6000D5FB04000DD11E2000F036F8102D07D251
:101B7000002229461E2000F03DF80748056000E0DD
:101B8000012407B0204630BD0010024040420F0043
:101B90000008004068090020140000200C4808B527
:101BA000816941F001018161816901F001010091C8
:101BB000C16941F08051C161C06900F0805000905E
:101BC0000448416821F0E06141F00071416008BDC6
:101BD0000010024000000140002809DB00F01F0255
:101BE000012191404009800000F1E020C0F800117F
:101BF00070470000F0B40E4B1B680C46C3F3022381
:101C0000C3F10705042D00D90425191D072901D2A8
:101C1000002300E0DB1E012606FA05F1491E2140E3
:101C200099409E40761E16403143F0BC05F07CBAC8
:101C30000CED00E0064900F0070208684FF6FF03CC
:101C4000184040EA0220034A104308607047000031
:101C50000CED00E00000FA052DE9F0470F46050005
:101C600061D0434E306800F00700B84209D23068B6
:101C700020F0070038433060306800F00700B842B9
:101C800051D128683B4C810712D5400703D56068C5
:101C900040F4E06060602878000703D5606840F495
:101CA000605060606068A96820F0F00008436060E0
:101CB0002878C00728D06868012810D02168022839
:101CC00010D0890700292EDA616821F00301014351
:101CD0006160FFF7AFFA804641F288390DE0216874
:101CE0008903EFE78901EDE7FFF7A4FAA0EB08010C
:101CF000494502D90320BDE8F0876068696800F0B3
:101D00000C00B0EB810FEFD1306800F00700B84253
:101D10000BD9306820F0070038433060306800F09D
:101D20000700B84201D00120E5E72878400705D533
:101D30006068E96820F4E060084360602878000784
:101D400006D56068296920F4605040EAC1006060EF
:101D500000F05EF86168084AC1F30311515CC840A5
:101D60000649086006480068FFF7CCFE0020C2E77D
:101D70000020024000100240A89D00081C00002026
:101D8000140000200F2202600C4A536803F0030382
:101D90004360536803F0F0038360536803F4E06327
:101DA000C36052684FF4E06303EAD2020261044860
:101DB000006800F007000860704700000010024053
:101DC0000020024001480068704700001C0000200D
:101DD0000448054900684968044AC1F30221515C7E
:101DE000C84070471C00002000100240B89D000849
:101DF0000448054900684968044AC1F3C221515C9E
:101E0000C84070471C00002000100240B89D000828
:101E100012A185B00FC98DE80F0014A0144A006804
:101E200004905168134801F00C03042B10D0082BC8
:101E30000ED1C1F38343C9031DF803000AD55168CD
:101E400004AAC1F34041515C0A4A5043B0FBF1F08F
:101E500005B0704708494843FAE70000020304054B
:101E6000060708090A0B0C0D0E0F101001020000E6
:101E70000010024000127A0000093D002DE9F84FE1
:101E8000040070D02078C04DC00749D06868C0F306
:101E90008100012807D06868C0F38100022809D1B9
:101EA0006868C00306D52868800339D560680028B3
:101EB000E7D035E06068B0F5803F0BD010B1B0F5E9
:101EC000A02F11D0286820F480302860286820F4E2
:101ED000802002E0286840F480302860606890B17B
:101EE000FFF7A8F906460AE0286840F48020286039
:101EF000F0E700BFFFF79EF9801B642873D82868BD
:101F00008003F7D50CE0FFF795F9064605E000BF22
:101F1000FFF790F9801B6428F0D828688003F7D475
:101F200020789A4E80074FF001094FF0000839D50C
:101F3000686810F00C0F07D06868C0F381000228B1
:101F400009D16868C00306D42868800714D52069C1
:101F5000012808D110E02069B0B1C6F80090FFF761
:101F600069F9074605E00AE1FFF764F9C01B02289A
:101F7000C4D828688007F7D52868616920F0F80080
:101F800040EAC10028600DE0C6F80080FFF752F972
:101F9000074604E0FFF74EF9C01B022823D8286843
:101FA0008007F7D4207800072CD57948A169D9B1EA
:101FB000C0F80090FFF73EF9074604E0FFF73AF952
:101FC000C01B02280FD8686A8007F7D571484FF404
:101FD000FA510068B0FBF1F0009000BF0098411E7C
:101FE0000091FAD20EE080E0C0F80080FFF722F9FD
:101FF000074604E0FFF71EF9C01B022875D8686A7F
:102000008007F7D42078400760D5E8690027C00032
:1020100008D4E86940F08050E861E869012700F0E1
:10202000805000905C480168C90513D4016883465C
:1020300041F480710160FFF7FDF8824606E000BFC1
:10204000FFF7F8F8A0EB0A0064284ED8DBF8000090
:10205000C005F5D5E06801280AD008B1052813D0DD
:10206000286A20F001002862286A20F0040002E0BB
:10207000286A40F001002862E06841F2883B98B18C
:10208000FFF7D8F882460BE0286A40F00400286287
:10209000EEE700BFFFF7CEF8A0EB0A0159455AD88A
:1020A000286A8007F6D50CE0FFF7C4F8824605E001
:1020B000FFF7C0F8A0EB0A0159454CD8286A800701
:1020C000F6D41FB1E86920F08050E861E06988B378
:1020D0006968C1F38101022944D00228C6F86080F2
:1020E00004D0FFF7A7F8044638E034E0FFF7A2F881
:1020F000074604E0FFF79EF8C01B02282BD828688B
:102100008001F7D4206AB0F5803F05D16868A168E6
:1021100020F4003008436860D4E908010843696886
:1021200021F4741108436860C6F86090FFF782F8E4
:10213000044606E025E000BFFFF77CF8001B0228FC
:1021400009D828688001F7D51BE000BFFFF772F8B7
:10215000001B022802D90320BDE8F88F28688001FF
:10216000F4D40EE00128F7D06868226A00F48031C8
:10217000914204D1616A00F47010884201D00120BC
:10218000EAE70020E8E700000010024000004242B9
:10219000800442421C0000200070004070477047DD
:1021A00070B590F83C20012A26D0012480F83C40EC
:1021B000022280F83D2003685A689D6822F070066C
:1021C0000A6832435A600D4B02689A4208D0B2F155
:1021D000804F05D00A4B9A4202D00A4B9A4204D152
:1021E000496825F080031943916080F83D40002143
:1021F00080F83C10084670BD022070BD002C0140E4
:10220000000400400008004010B5040003D094F81A
:102210003D0010B107E0012010BD002084F83C0013
:10222000204600F01FF8022084F83D00211D2068A0
:1022300004F05AFC012084F8460084F83E0084F83B
:102240003F0084F8400084F8410084F8420084F89C
:10225000430084F8440084F8450084F83D000020E1
:1022600010BD000000B585B00021009101910291E0
:10227000039100680E49884217D10E48816941F4E4
:1022800000618161816901F400610491816941F01B
:10229000040181618069694600F0040004904FF4F4
:1022A000805000900448FEF7C3FE05B000BD00005A
:1022B000002C0140001002400008014090F83D1041
:1022C000012901D001207047022180F83D100068EB
:1022D0000B49884208D0B0F1804F05D009498842A7
:1022E00002D00949884204D1816801F0070106291A
:1022F00003D0016841F00101016000207047000037
:10230000002C0140000400400008004090F83D10FF
:10231000012901D001207047022180F83D10016899
:10232000CA6842F00102CA6000680B49884208D0BE
:10233000B0F1804F05D00949884202D0084988424F
:1023400004D1816801F00701062903D0016841F03A
:102350000101016000207047002C01400004004092
:102360000008004070B5044690F83C00012817D0E2
:10237000012584F83C50022084F83D0020688268E2
:1023800022F0770222F47F4282600868502830D021
:102390000DDC20284DD005DC98B310283BD148E057
:1023A000022070BD302844D0402834D139E0602864
:1023B00028D0702806D0B0F5805F2CD0B0F5005F33
:1023C00029D10AE0CB68D1E90121206804F0CFFBD4
:1023D0002068816841F0770109E0CB68D1E90121EB
:1023E000206804F0C4FB2068816841F4804181606A
:1023F00011E0CA684968206804F06EFC502120682A
:1024000007E016E0CA684968206804F076FC60219D
:10241000206804F0B6FB84F83D50002084F83C00AE
:1024200070BDCA684968206804F056FC40212068E5
:10243000EFE7226801461046EBE7704770B50446A7
:10244000006801694FF00005C943890715D4C168C8
:10245000C943890711D4E91E016101202077206852
:1024600080698007204602D0FFF7E7FF04E000F014
:10247000C7F8204600F068F9257720680169C9434C
:10248000490717D4C168C943490713D46FF0040141
:102490000161022020772068806910F4407F204687
:1024A00002D0FFF7CAFF04E000F0AAF8204600F0CF
:1024B0004BF9257720680169C943090716D4C1681B
:1024C000C943090712D46FF0080101610420207785
:1024D0002068C0698007204602D0FFF7AEFF04E005
:1024E00000F08EF8204600F02FF92577206801696A
:1024F000C943C90617D4C168C943C90613D46FF0CC
:1025000010010161082020772068C06910F4407F25
:10251000204602D0FFF791FF04E000F071F820465A
:1025200000F012F9257720680169C943C90708D16D
:10253000C168C943C90704D1891E0161204600F062
:1025400053F920680169C943090609D4C168C94320
:10255000090605D46FF0800101612046FFF71EFED9
:1025600020680169C943490609D4C168C9434906BD
:1025700005D46FF040010161204600F03FF920686A
:102580000169C94389060BD4C168C943890607D4C8
:102590006FF0200101612046BDE87040FFF7FFBDEC
:1025A00070BD000000B585B000210091019102913D
:1025B00003910068B0F1804F1AD10E48816941F053
:1025C000080181618069694600F0080004900820D4
:1025D00000900220019003900748FEF729FD07486C
:1025E000416821F4407141F0E06141F48071416043
:1025F00005B000BD00100240000C01400000014089
:10260000704770B5044690F83C000D4601280AD08A
:10261000012084F83C0042B1042A18D0082A2AD0AC
:102620000C2A4DD139E0022070BD206804F0B2FAC6
:102630002068816941F0080181612068816921F089
:1026400004018161206881692A69114311E02068D1
:1026500004F0C8FA2068816941F400618161206852
:10266000816921F480618161206881692A6941EA78
:102670000221816124E0206804F0E0FA2068C16949
:1026800041F00801C1612068C16921F00401C16104
:102690002068C1692A69114311E0206804F0FAFA40
:1026A0002068C16941F40061C1612068C16921F4F9
:1026B0008061C1612068C1692A6941EA0221C16162
:1026C000002084F83C0070BD10B5040003D094F8DD
:1026D0003D0010B107E0012010BD002084F83C004F
:1026E000204600F01FF8022084F83D00211D2068DC
:1026F00004F0FAF9012084F8460084F83E0084F8DA
:102700003F0084F8400084F8410084F8420084F8D7
:10271000430084F8440084F8450084F83D0000201C
:1027200010BD000008B50068B0F1804F08D1054821
:10273000C16941F00101C161C06900F00100009070
:1027400008BD0000001002407047000010B50446AC
:10275000022249B104290ED0082913D094F841006F
:10276000012816D0012010BD94F83E000128F9D1AF
:1027700084F83E200FE094F83F000128F2D184F85D
:102780003F2008E094F840000128EBD184F8402075
:1027900001E084F841200122206804F0DBF90F49B0
:1027A0002068884203D1426C42F4004242642068AF
:1027B000884208D0B0F1804F05D00949884202D044
:1027C0000849884204D1816801F00701062903D035
:1027D000016841F001010160002010BD002C0140A2
:1027E000000400400008004000680349884201D10D
:1027F000FFF76EB97047000000080040704770474F
:1028000070470000F8B5026804461068D168536943
:1028100010F00F0F4FF0000554D003F0010601F443
:10282000907737435FD0C20705D0CA0503D5226C25
:1028300042F001022264420705D5DA0703D0226C78
:1028400042F002022264820705D5DA0703D0226C27
:1028500042F004022264020707D501F0200232434D
:1028600003D0226C42F008022264226C002A35D088
:10287000800604D5880602D5204604F03FFB206878
:102880004069216CC0F3801001F00801014320462B
:1028900025D004F01BFB2068416949061BD541691E
:1028A00021F040014161A06BA8B158494163A06B80
:1028B000FEF784FA002811D0A06B416B01B0BDE88F
:1028C000F040084783060ED58B060CD52046BDE8A0
:1028D000F84004F013BB2046FFF792FFF8BDFFF766
:1028E0008FFF2564F8BD266B2023012E52D1C6062A
:1028F00050D5CE064ED510685068009050694006FD
:102900002AD5A16B086840680004000CEAD0A68DA7
:102910008642E7D9E0858869202818D0D06820F45D
:102920008070D0602068416921F001014161206818
:10293000416921F04001416184F83E3025632068FF
:10294000C16821F01001C160A06BFEF714FAA08DE0
:10295000E18D401A81B219E0A08DE18D401A81B25B
:10296000E08D0028BED00029BCD0D06820F4907043
:10297000D0602068426922F00102426184F83E3052
:1029800025632068C26822F01002C2602046FFF76B
:1029900036FFF8BD05062BD50D0629D594F83D0068
:1029A0002128F6D1A068B0F5805F01D12069B0B1CF
:1029B000206A411C2162216800784860E08C401E3A
:1029C0000004000CE084E4D12068C16821F080019B
:1029D000C1602068C16841F04001C160F8BD206A53
:1029E0000088C0F308005060206A801C2062E5E780
:1029F0004006F3D54806F1D5D168204621F04001C4
:102A0000D16084F83D3000F0FEF8F8BDBD6E0008DE
:102A100070B5040004D094F83D00002510B106E024
:102A2000012070BD84F83C50204600F023F824209B
:102A300084F83D002068C16821F40051C16020463F
:102A400004F0B8FA2068016921F49041016120681E
:102A5000416921F02A0141612068C16841F40051B7
:102A6000C1602564202084F83D0084F83E000020E9
:102A700070BD0000F0B585B00024064600940194B6
:102A80000294039400682D49884254D12C488169EE
:102A900041F480418161816901F48041049181693F
:102AA00041F0040181618069264D00F0040004902A
:102AB0004FF40070009002200190032003906946BB
:102AC0002846FEF7B5FA2815CDE9000469462846E0
:102AD0000294FEF7ADFA1D4D1B488027C5E900049E
:102AE000C5E902472C616C61AC612846EC61FEF7D8
:102AF0005FFA08B1FEF73DF9B5636E62134D1248F7
:102B00004435143801C5102091C5104845F81049C6
:102B100044306C61AC61EC61FEF74AFA08B1FEF733
:102B200028F975630022114625206E62FFF762F8CE
:102B30002520FFF751F805B0F0BD00000038014036
:102B4000001002400008014058000240E008002048
:102B5000704700002DE9F843044690F83D001F46F9
:102B600016460D4620284CD1C5B1BEB194F83C00A4
:102B7000012846D0012084F83C004FF00008C4F83A
:102B80004080212084F83D00FEF754FBA684814656
:102B9000E684A068B0F5805F03D004E00120BDE8C2
:102BA000F883206928B12E465FF0000584F83C8048
:102BB0000EE00026FAE78021204604F057FAA0B97B
:102BC000AEB116F8010B21684860E08C401EE0842D
:102BD000E08C4B464FF0000200970028EBD14FF0FD
:102BE0004001204604F042FA30B10320D7E735F81F
:102BF000020BC0F30800E6E7202084F83D00002027
:102C0000CDE70220CBE77047FEE700000148FEF762
:102C100019BB0000B80700200148FEF775BB000093
:102C2000B807002038B5406A002190F83D202B4BB2
:102C300046F2A8141B68B3FBF4F3C3EBC30303EB26
:102C4000830300933BB15B1E009303681B689B05E5
:102C500005D5009BF6E7036C43F020030364436B48
:102C600003B19962836B03B1996203681C6824F411
:102C700080641C604185436B03B15963836B03B16E
:102C8000596303681C6824F001041C6090F83D40FF
:102C90002023602C0BD0282434EA02020FD080F8C5
:102CA0003D3080F83E1000BFFEF746FC38BD80F88E
:102CB0003D3080F83E100164FEF7C2FA38BD02686C
:102CC000136843F0010313600268136843F48063E0
:102CD0001360016380F83D40E6E700001C0000201F
:102CE00070B5044690F83D0094F83E10102901D0CC
:102CF000402906D1222804D121680A6822F4006202
:102D00000A60282131EA00024FF000054FF020064A
:102D100026D021684968090505D4602803D084F8C5
:102D20003D6084F83E50256320684168090537D529
:102D3000416821F400614160606B3D4990F82120B9
:102D4000012A11D04163606BFEF738F838B3206870
:102D5000016821F00101016084F83D60606B1CE0B6
:102D6000256384F83D10DFE7A06B4163A06BFEF79D
:102D700025F8A0B120684169C943490605D4006916
:102D8000616A0870606A401C60622068016821F016
:102D90000101016084F83D60A06B416B884710E041
:102DA00094F83D10602910D04169C943490605D403
:102DB0000069616A0870606A401C60622046FEF724
:102DC000BBFB206CC1071CD115E084F83D60256475
:102DD0004169C943490605D40069616A0870606A9F
:102DE000401C60622068016821F0010101602046FA
:102DF000FEF726FAE5E7810703D4410701D400076F
:102E000004D52068416821F4E061416094F83D00F8
:102E1000216C49070BD5282809D10648E0622563B3
:102E200084F83D6084F83E502046FEF74BFC70BDB0
:102E3000252C00080000FFFF01684A69D2435205B3
:102E40000FD46FF480624A61002140F8301F2022C5
:102E500042738173026942F004020261017301202E
:102E600070470020704710B5C26A438D0168042B7B
:102E700006D0438D032B08D0438D022B1DD012E0CA
:102E80004A6822F480624A600CE04B6823F4806355
:102E90004B60042A06D0022A04D001680A6822F492
:102EA00080620A6001680969426A1170416A491CBE
:102EB0004162418D491E418510BD012A30D0102A42
:102EC0002ED0042A30D0022A2ED00A6842F4007292
:102ED0000A6001680969426A1170416A491C4162CD
:102EE000428D521E4285026812690A70416A491C6D
:102EF0004162418D491E418501684A6822F4407251
:102F00004A60202180F83D1090F83E200021402AA0
:102F100080F83E100CD012210163FEF7D4FB10BDE7
:102F20000A6822F48062D3E70A6842F48062CFE73D
:102F30000163FEF7CAFB10BD38B590F83D10222999
:102F400014D1418D032912D901680969426A1170AF
:102F5000416A491C4162418D491E4185418D0329C9
:102F600004D10068416821F48061416038BDC26AC3
:102F7000022AFBD0012901D00029F7D1274946F2C6
:102F8000A81300220968B1FBF3F101EB8101009164
:102F900001682023009C641E009422D00C68A405C4
:102FA000F8D40C6824F480640C6001684C6824F444
:102FB000E0644C6001680969446A2170416A491CF7
:102FC0004162418D491E418580F83D3090F83E10A8
:102FD00080F83E2040291DD012210163FEF773FBCB
:102FE00038BD046C44F0200404644C6824F4E064AC
:102FF0004C6001680969446A2170416A491C416258
:10300000418D491E418580F83D3080F83E20FEF715
:1030100093FA38BD0263FEF758FB38BD1C00002050
:1030200010B5C26A90F83D1021290BD1418D51B1E4
:10303000416A026809781161416A491C4162418D07
:10304000491E418510BD20230021082A13D0202AC3
:1030500011D012F5803F0ED00268546824F4E06469
:1030600054601122026380F83E1080F83D3000BFAA
:10307000FEF72AFB10BD0268546824F4E064546033
:103080000268146844F400741460016380F83D30F1
:1030900090F83E2080F83E10402AE9D1FEF716FB5A
:1030A00010BD000010B590F83D1090F83E30C26A97
:1030B000048DB4B1212903D0402B11D122290FD185
:1030C000418DE1B390F83E10402942D0416A026838
:1030D00009781161416A491C4162418D491E41854F
:1030E00010BD2129E8D120230021082A13D0202A4D
:1030F00011D012F5803F0ED00268546824F4E064C9
:1031000054601122026380F83E1080F83D3000BF09
:10311000FEF7DAFA10BD0268546824F4E0645460E3
:103120000268146844F400741460016380F83D3050
:1031300090F83E2080F83E10402AE9D100E002E0FD
:10314000FEF7C4FA10BD0068416821F48061416057
:1031500010BDBDE8104000F0F3B8000078B590F85D
:103160003E50C26A046B90F83D6000230168222E35
:1031700073D1066D0EB9402D6FD0056D1DB905696F
:10318000B5F5404F1BD0458D95B3468D484D012E6A
:1031900020D0448D022C4DD00C6844F480640C6027
:1031A00001684C68240579D5AA4273D0012A71D0F0
:1031B000082A6FD0102A6DD0202A6BD06EE04A69A1
:1031C0008A6900920A6842F480720A60016D491CA3
:1031D000016578BDAA4214D10A6822F480620A60AF
:1031E00001684A68120504D50A6822F4806217E073
:1031F000FFE74A698A6900920A6842F400720A602D
:1032000050E0082A10D0202A0ED0122C0AD0042A0E
:1032100003D0022A01D0102AE6D10A6842F4806263
:103220000A603BE0012ADFD00A6822F480620A606B
:103230000168DEE7042A11D0022A0FD0102A0DD02F
:103240000C6844F400640C6001684C698C6900945B
:103250000C6824F480640C6008E025E00C6844F4F9
:1032600080640C6001684C698969009101684C6850
:10327000240517D5AA4207D0012A05D0082A03D071
:10328000102A01D0202A0DD14A6842F480524A60A7
:1032900008E0FFE74A6842F480524A6001684A69E0
:1032A00089690091036578BD48698869009078BD97
:1032B0000000FFFF90F83E10402910D00169B1F5E1
:1032C000804F19D0016DA9B3016D012910D1416C56
:1032D0005FF0F10201F4407142EAD11106E0016DA4
:1032E0000029416C05D0C9B241F0010100680161BB
:1032F000704701F0FE01F9E790F83D102129416C7B
:1033000009D0C9B241F0010102681161416B29B1D4
:10331000896A49B902E001F0FE01F5E7816B0029F5
:10332000E6D0896A0029E3D00068416841F4006171
:1033300041607047FFE7416CF02201F44071CBE738
:1033400010B590F83D10026D22B3026D012A2FD006
:10335000026D022A1DD122292FD0428D0AB12129C6
:1033600033D0428D002A14D1212912D101684A6834
:1033700022F4E0624A6001680A6842F400720A605E
:1033800000210163202280F83D2080F83E10FEF7E6
:103390009DF910BDC16C0129816C02D0C1F30721D8
:1033A00008E00268C9B21161016D891C016510BD98
:1033B000816CC9B20268116104E001680A6842F4D4
:1033C00080720A60016D491CF0E7416A0268097861
:1033D0001161416A491C4162418D491E418510BD00
:1033E0002DE9F84F0446006889460B9D0168984610
:1033F000174641F4806101602068016841F48071E2
:10340000016000954FF0011B0022594620460A9B9F
:1034100000F0F2F94FF4007A40B120680068C0056E
:1034200001D5C4F840A00320BDE8F88F216809F059
:10343000FE0008612B46284920460A9A00F010FA3F
:10344000F0BB20684169806900902A4620460A99AD
:1034500000F084FA40B1206C04283AD12068016859
:1034600041F40071016034E0FEB2B8F1010F09D0FF
:103470002168380A08612A4620460A9900F06EFA47
:103480000028E8D1206806612A4620460A9900F003
:1034900065FA0028DFD12068016841F4807101607D
:1034A00000950022594620460A9B00F0A5F9002805
:1034B000B3D1216809F0FF0040F00100086100E08D
:1034C00007E02B46044920460A9A00F0C9F9002873
:1034D000AAD00120A8E70000020001002DE9F8436E
:1034E000044600680D46DDE90897016898461646CF
:1034F00041F4807101604B4600224FF001112046DB
:10350000009700F079F948B120680068C00502D53D
:103510004FF4007020640320BDE8F883216805F0B3
:10352000FE0008613B464A461549204600F098F9DE
:1035300088B920684169806900903A46494620462A
:1035400000F00CFA48B1206C042804D1206801680E
:1035500041F4007101600120DEE7F5B2B8F1010F1E
:1035600009D02168300A08613A464946204600F0F1
:10357000F5F90028E7D1206805610020CCE70000BC
:103580000200010038B50C4690F83D2000212825A6
:10359000954302680B4605D051699169009180F806
:1035A0003C3038BD556825F480655560E2435407CA
:1035B00000D50121120601D5828900E0028B80F836
:1035C0003C3092B2FDF73DFE38BD00002DE9F041E0
:1035D00090F83D40C26A002320261C4F01686FF41A
:1035E0008065082A01D0202A01D1282C04D0212C62
:1035F00016D04D61BDE8F081C7624A6822F4E062EE
:103600004A6001684D6101680A6822F480620A60BC
:10361000036380F83D6080F83E30FEF753F8E9E739
:10362000C7622122026380F83D6080F83E304A681C
:1036300022F4E0624A6001684D6101680A6822F480
:1036400080620A60FEF743FAD4E700000000FFFF43
:10365000F8B590F83D6004460068416821F4E061E7
:1036600041602068002541690091016841F0010135
:1036700001602068016821F4806101602068416870
:10368000090520D5474F222E48D02A2E46D0616BFF
:10369000096849686185618D19B1216C41F00401A7
:1036A0002164416821F400614160606BFDF7D2FB49
:1036B000012808D0606B4763606BFDF77FFB10B19A
:1036C000606B416B8847608D08B320684169C943CE
:1036D000490708D40069616A0870606A401C60622A
:1036E000608D401E608520684169C943490608D441
:1036F0000069616A0870606A401C6062608D401EEB
:103700006085608D18B1206C40F004002064206C4E
:1037100000B32046BDE8F840FFF7E2BAA16B0968A4
:1037200049686185618D19B1216C41F00401216402
:10373000416821F400614160A06BFDF78BFB01281B
:10374000C1D0A06B4763A06BFDF738FB0028BAD04F
:10375000A06BB6E72A2E06D12563282084F83D0009
:103760002046FEF7B3F994F83D10202028290DD00B
:10377000216B222901D0222E07D1256384F83D0038
:1037800084F83E502046FEF7A1F9F8BD0649E162F3
:10379000256384F83D0084F83E502046FDF792FFF3
:1037A000F8BD0000252C00080000FFFF70B516468C
:1037B0000D4604460DE02046FFF73EFB08B1012010
:1037C00070BD681C05D0FDF735FD801BA84207D8E9
:1037D00035B120684069C0434007ECD4002070BD7B
:1037E000002044F8300F20216173A073216941F05B
:1037F000200121612073E2E72DE9F0471E46904643
:103800000D460446C1F30747DDF8209008E0701C20
:1038100006D0FDF70FFDA0EB0900B0420FD876B13E
:103820002068012F18D0806925EA00000004000CF0
:1038300014D000214145EAD00020BDE8F0870020E7
:1038400044F8300F20216173A073216941F02001F9
:10385000216120730120F0E74069E5E70121E9E7F4
:103860002DE9F0479A4691460E46044600254FF052
:103870002008C1F3074725E020684069C0434005A0
:1038800014D42068016841F40071016021686FF46C
:1038900080604861256384F83D8084F83E50206C48
:1038A00040F00400206484F83C501FE0B9F1FF3F71
:1038B00008D0FDF7BFFCA0EB0A0149450CD8B9F1CF
:1038C000000F09D02068012F13D0806926EA00007C
:1038D0000004000C0BD0CFE744F8305F84F80D8073
:1038E000A573206940F02000206125730120BDE808
:1038F000F0874069EAE72DE9F041002590460E4641
:103900000446202717E04069C043C0060CD454F891
:10391000301B6FF01000486144F810596777A577A5
:10392000206A2062257717E0FDF784FCA0EB0800F1
:10393000B04208D83EB120684169C9434906E2D483
:103940000020BDE8F08144F8305F6773A5732069FB
:1039500040F02000206125730120F2E770B5164683
:103960000D4604460DE02046FFF766FA08B1012037
:1039700070BD681C05D0FDF75DFC801BA84207D810
:1039800035B120684069C0430006ECD4002070BD0A
:10399000002044F8300F20216173A073216941F0A9
:1039A000200121612073E2E77CB514460D460646EE
:1039B0006B4606224321682000F010F800280BD146
:1039C000BDF8001049BA3180BDF8021049BA29800B
:1039D000BDF8041049BA21807CBD00003EB540000E
:1039E000CDE900320A4640F6FF74014602940123F5
:1039F0000148FDF76DFE3EBDB80700203EB5400012
:103A0000CDE900320A4640F6FF74014602940123D4
:103A10000148FDF785FF3EBDB80700200D4808B5F9
:103A2000416941F0010141614069002200F001005B
:103A3000009011460E20FEF7DDF80E20FEF7CCF8C0
:103A4000002211460F20FEF7D5F8BDE808400F20F0
:103A5000FEF7C2B80010024030B585B000241C4803
:103A60000094019402940394816941F020018161E2
:103A7000816901F020010491816941F004018161B3
:103A8000816901F004010491816941F008018161BB
:103A90008069104D00F00800049000220E21284695
:103AA000FDF7C3FB0E2000900120CDE901040220A8
:103AB000039069462846FDF7BBFAE814CDE90004F7
:103AC000694628460294FDF7B3FA05B030BD000000
:103AD00000100240000801400D4810B50B4901607C
:103AE0000C49416000214FF480428160C0E903121B
:103AF00041618161C1610162FDF720FD002803D0B1
:103B0000BDE81040FDF735B910BD0000005400407D
:103B1000B8070020801A060010B586B000241848A7
:103B20000094019402940394049414490594C0E908
:103B300000144FF6FF71C0E90241046144618461E1
:103B4000FEF762FB08B1FDF714F94FF40050CDE920
:103B50000004029469460A480394FEF703FC08B186
:103B6000FDF707F9049404A905480594FEF718FB2E
:103B7000002801D0FDF7FDF806B010BD002C014073
:103B80000C08002010B58AB0002407941C21684658
:103B90000894FCF729FB16484FF08041016047214B
:103BA000C0E9011440F2E731C0E903148461FEF773
:103BB0008BFD08B1FDF7DDF8079407A90C480894C0
:103BC000FEF7EEFA08B1FDF7D4F86020CDE9000465
:103BD00002940422694606480494FEF712FD08B1D7
:103BE000FDF7C7F80248FEF7DDFC0AB010BD000083
:103BF000540800200C4810B50A4901604FF4E13127
:103C00004160002181600C22C160C0E90412816121
:103C1000C161FEF7FDFE002803D0BDE81040FDF7AE
:103C2000A8B810BD003801409C080020FEE70A46F5
:103C3000002100F023B800000D480E490246C0E9FB
:103C4000001200218160C160016141618161C16137
:103C500001620163C162416200F148018163C16395
:103C60004FF4A051016441640348026070470000B2
:103C7000040A002048454150C400002010B5002A25
:103C800021D000281FD000244FEA04035B1C41EA26
:103C90000424042BFAD310F0030305D10BE000BF7A
:103CA000521E00F8011B5B1C002A0CD0042BF7D31A
:103CB00001E010C0121F042AFBD202E000F8011B31
:103CC000521E002AFAD110BDFEE770470248006874
:103CD000002800D000477047DC00002010B50446E3
:103CE00000F0BEF8464800210A22017045480170E4
:103CF00045480170454801604548016045480170EC
:103D000045480170454801704548016045480160DB
:103D1000454801604548017045480068B0FBF2F035
:103D2000444A1060444A106830B14448006818B1F1
:103D3000126802C0521EFCD1414801604148016036
:103D400041480160414801604148016041480160CB
:103D5000414801604148017001F0ECFB01F09EFC1C
:103D6000204600F0FDFE2088002847D1204601F0C3
:103D7000F1F92088002841D1204601F0F7F9208888
:103D800000283BD1204601F08BFA2088002835D14D
:103D9000204601F0F5FB208800282FD1204601F0B5
:103DA000A5FD2088002829D1204602F03DF8208872
:103DB000002823D1204601F041F9208800281DD198
:103DC000204600F0D9FF2088002817D1204602F0B5
:103DD00097FC2088002811D1204601F083FF20881D
:103DE00000280BD1204602F0EDFC2088002805D1E8
:103DF00000F0B4FEBDE81040FFF767BF10BD000043
:103E0000F0000020F8000020400100209801002070
:103E10009C0100202601002027010020280100200D
:103E200034010020380100203C010020480100201E
:103E300050AA0008440100202CAA000828AA000863
:103E4000D0000020D4000020D8000020DC0000209A
:103E5000E0000020E4000020E800002076010020BF
:103E600030B5094B0020094A0446196801E010C129
:103E7000401C1568A842FAD31868054900EB850074
:103E8000001F086030BD000028AA00082CAA000806
:103E9000C80000201A4810B5007801282FD1FCF77F
:103EA00045F9184A0446117829B1491E11F0FF005E
:103EB000107022D103E0BDE81040FCF73BB9124876
:103EC0000078D0B901F024FB10490870104900EBCC
:103ED000400051F820100F4801600F4800688142EF
:103EE0000BD051F8900F401C08600C480168491C29
:103EF00001600B494FF0805008602046DBE710BDA1
:103F0000F8000020F00000204001002027010020E0
:103F1000783400209C010020980100206C010020D2
:103F200004ED00E0164810B50078002826D11548A9
:103F30000078002822D1FCF7F9F8044601F0E8FAED
:103F400011490870114900EB400051F82000104958
:103F500008601049096888420BD050F8901F491C2E
:103F600001600D480168491C01600C494FF0805008
:103F700008602046BDE81040FCF7DCB810BD00002A
:103F8000F0000020400100202701002078340020AC
:103F90009C010020980100206C01002004ED00E04D
:103FA00070B504461248007810B146F662501DE024
:103FB00010480078012802D045F6896016E00E4DC1
:103FC0002878FA2802D345F209200FE0FCF7AEF872
:103FD0000646FCF761FE2878401C287001F026FC9C
:103FE000FCF76AFE3046FCF7A5F80020208070BD83
:103FF000F0000020F80000204001002070B50446C9
:104000001848007810B146F6655029E01648007847
:10401000012802D045F6896022E0144D287890B13D
:10402000FCF784F80646FCF737FE2878401E10F0AF
:10403000FF0028700AD0FCF73FFE3046FCF77AF804
:1040400046F663500CE046F6645009E001F0FCFBD4
:10405000FCF732FE3046FCF76DF8FFF763FF0020F7
:10406000208070BDF0000020F800002040010020FA
:1040700070B50F4D0446287818B145F68A60208047
:1040800070BD01F045FA0B4908700B4908700B49E7
:1040900000EB400051F82000094908600949086018
:1040A00001202870FCF7FCFC43F69920E7E70000AC
:1040B000F80000202701002026010020783400208D
:1040C0009C010020980100202DE9F0410646FCF7F4
:1040D0002DF80546FCF7E0FD2E48002404602E482C
:1040E00004802E4804802E4804602E4804602E4828
:1040F00004602E4804602E4804602E480481FCF7BA
:10410000DBFD2846FCF716F8FCF710F80746FCF72D
:10411000C3FD2948056818E0FCF708F80746FCF7D6
:10412000BBFDC5F8B440C5F8B84045F8784F2C63DE
:10413000AC61AC82EC826C62AC62FCF707FE45F8C5
:10414000200FA5F134008481AD6AFCF7B5FD384637
:10415000FBF7F0FF002DDFD1FBF7E8FF0746FCF788
:104160009BFD1648056806E0FBF7E0FF0746FCF7F5
:1041700093FDAC85AD69FCF79FFD3846FBF7DAFF90
:10418000002DF1D102F0D6F902F0EAFB3480BDE84F
:10419000F08100000C0100200601002056010020E3
:1041A000680100207C01002088010020F40000202C
:1041B000380100206C340020700100202C01002008
:1041C00002480068002800D000477047E000002047
:1041D0002DE9FF4F83B004467248DDE91785DDE91C
:1041E00010960078DDF854A0139F10B147F24A10E2
:1041F0002AE04CB1059850B166B16B48006887421F
:104200000BD246F630601FE047F2AD101CE047F2DB
:104210004F1019E046F62F6016E01298B84202D30C
:1042200046F6316010E046F27320B9F1200F0BD250
:104230005FEA090103D0B9F11F0F02D008E05B4922
:1042400000E05B498C4203D0288007B0BDE8F08FC6
:10425000204601F0F9FD4FF0000BA5F800B05FEA31
:10426000C8700AD05FEA887007D5304600215A46E8
:1042700001E004C0491CB942FBD31298CDE9007893
:1042800006EB8005DDE905012B46324600F078FAA1
:104290000599A1620699E1620499216284F8379038
:1042A000C4F854A0A56020605FEA0A0024D0A0658D
:1042B0001698A76366626060A4F83C8000205946A7
:1042C00004EB8002401CD16710F0FF00F8D004F12D
:1042D0006400149900F098FF204600F075F8FBF791
:1042E00025FF0646FCF7D8FC324D2878401CC0B2AA
:1042F0002870012803D004E02F480068D7E701F0B8
:1043000095FAFCF7D9FC3046FBF714FF94F8370018
:1043100001F016F9204601F007FA204601F056FD9B
:1043200026490888401C088025480078012821D0AB
:10433000FBF7FCFE0446FCF7AFFC2878401E10F0AB
:10434000FF0129700ED101F07FFA1E48008848B1A4
:10435000FCF7B2FC2046FBF7EDFE07B0BDE8F04FDE
:1043600001F040BAFCF7A8FC07B02046BDE8F04FCA
:10437000FBF7E0BEFBF7DAFE0446FCF78DFC28787D
:10438000401E10F0FF01297001D101F05DFAFCF729
:1043900093FC2046FBF7CEFE07B0BDE8F04FFFF7D9
:1043A000C1BD0000F00000204CAA0008A43300208A
:1043B000DC32002040010020440100207401002074
:1043C000F80000200401002002490968002900D0FB
:1043D00008477047D00000202DE9F04104465248BC
:1043E0000E46007810B147F24E100AE04F48844262
:1043F00002D147F24C1004E04D48844204D147F208
:104400004D100880BDE8F0815CB9FBF78FFE0546D2
:10441000FCF742FC47480468FCF74EFC2846FBF7D3
:1044200089FEFBF783FE0746FCF736FC424D2878F1
:10443000401CC0B22870012801D101F0F7F9FCF747
:104440003BFC3846FBF776FE94F8360008283DD250
:10445000DFE800F004080C0C1C080C0C204601F0EE
:1044600097F913E0204602F049F80FE0204602F0E9
:1044700045F894F83400072808D2DFE800F0070474
:10448000070404040400204600F0B5FF04F16400B2
:1044900000F0A0FE204600F055F8204601F0A8FCF0
:1044A00026490888401E0880204601F0CDFCFF20E8
:1044B00084F83600FBF73AFE0446FCF7EDFB28785B
:1044C000401E10F0FF00287021D022E0FBF72EFEE6
:1044D0000446FCF7E1FB2878401E10F0FF0028702E
:1044E0000CD101F0B1F91648008838B1FCF7E4FBB3
:1044F0002046FBF71FFE01F075F904E0FCF7DCFB3A
:104500002046FBF717FE46F62D6030807AE701F073
:104510009BF9FCF7D1FB2046FBF70CFE0020308016
:10452000BDE8F041FFF7FEBCF0000020DC320020C7
:10453000A4330020980100204001002074010020D5
:104540000401002002490968002900D0084770478B
:10455000D400002002490968002900D008477047AC
:10456000D80000202DE9F0478146574814461E46E2
:104570000078884610B146F2AE1006E0080006D07A
:10458000B1F5004F03D045F6256018803DE00027C7
:1045900004B12760FBF7CAFD8246FCF77DFB4B4D5B
:1045A0002968486CD8B1401E804648640CB1086C3C
:1045B0002060FCF7CBFB29680A6C801AC1F8A400C4
:1045C000D1F8A820824201D2C1F8A800FCF774FB00
:1045D0005046FBF7AFFD37804046BDE8F0875FEA05
:1045E000084007D5FCF768FB5046FBF7A3FD46F2F1
:1045F000B01009E03648017849B1FCF75DFB504640
:10460000FBF798FD46F6635030800020E5E7012176
:104610008046017001F00AF9FCF74EFB5046FBF7AB
:1046200089FD00214B460722084600F045FEFBF7B6
:104630007DFD8146FCF730FB98F80010491E11F013
:10464000FF0188F8001001D101F0FEF8FCF734FBFF
:104650004846FBF76FFDFFF765FCFBF767FD8046FB
:10466000FCF71AFB286890F8351031B1012916D0F3
:1046700003291AD046F62E601BE074B1006C20604E
:10468000FCF764FB29680A6C801AC1F8A400D1F811
:10469000A820824201D2C1F8A80037800AE00CB1FC
:1046A000006C206046F2A91003E004B1276047F2D5
:1046B000D92030802868446CFCF7FEFA4046FBF7AE
:1046C00039FD204689E70000F00000209801002015
:1046D000400100202DE9F0470546274816460F46C1
:1046E00000781C4610B147F259100AE046F2D52076
:1046F0003FB136B1FBF71AFD8146FCF7CDFA1DB18B
:1047000004E01880BDE8F0871C4805684FF00008F9
:10471000286858B195F83C00C00713D0FCF7CCFAD4
:104720004846FBF707FD0020696A1AE0FCF7C4FA67
:104730004846FBF7FFFCC7F8008047F25210C6F866
:1047400000800AE0FCF7B8FA4846FBF7F3FCC7F82C
:10475000008047F25410C6F800802080D2E7401C49
:10476000091D0A68002AFAD03860A96B081A30605F
:10477000A4F80080C6E70000F000002098010020A7
:1047800010B5029C02EB84024FF0807442E90204EF
:10479000164842F80C0C4FF0123042F8100CA2F1FF
:1047A00014004FF0023240E903134FF0113140F88A
:1047B000101CD10040F8141C4FF0093140F8181CAF
:1047C000910040F81C1C4FF007314FF0033440F8C3
:1047D000201C610040F8241C4FF0053140F8281DD2
:1047E0005100C0E9092440F8041D10BD71610008A2
:1047F00070B51548006800B18047FCF7A7FA134C64
:10480000134A21681268914207D0D1F89830C31A30
:1048100041F8943F8D682B448B60C2F89800FCF7F8
:104820001DFA2168D1F8B420824201D2C1F8B40047
:10483000084AD1F8B8301068834201D2C1F8B800F4
:104840000020106070BD0000E400002098010020EE
:104850009C0100203C0100202DE9F04180463648B3
:104860000F461546007810B147F2752020E0334C12
:10487000207810B146F663501AE047B1022F06D0F7
:10488000042F07D0082F02D045F6256010E0B8F1BC
:10489000000F0BD0FBF74AFC0646FCF7FDF9207829
:1048A000401CC0B22070012805D006E047F27E20EF
:1048B0001080BDE8F08100F0B9FFFCF7FDF930464B
:1048C000FBF738FC1E4E01212B4630683A4680F833
:1048D0003610414601F0A6FD288898B1FBF726FC6A
:1048E0000546FCF7D9F92078401E10F0FF01217031
:1048F00001D100F0A9FFFCF7DFF92846BDE8F0413F
:10490000FBF718BC306800F043FFFBF70FFC0646CE
:10491000FCF7C2F92078401E10F0FF00207001D192
:1049200000F092FFFCF7C8F93046FBF703FCFFF7F5
:10493000F9FA00202880BCE7F000002040010020A8
:104940009801002000B585B000F01CF8FCF7FEF9D6
:1049500004AA002103920091CDE9011006480749FD
:10496000002300781A4600EB400001EB8001044868
:1049700000F036FA05B000BD260100207834002092
:104980005449434B02480068002800D00047704754
:10499000E80000202DE9F84F04463548DDE90CB564
:1049A0000078DDF828801F4616468A4610B147F287
:1049B000433023E044B14046B8F1010F0BD0022848
:1049C00005D045F6256019E045F6C35016E01FB93D
:1049D00047F2403012E07EB1FBF7A8FB0090FCF7F5
:1049E0005BF9DFF8909099F80010491CC9B289F87A
:1049F0000010012905D006E047F23F302880BDE8CD
:104A0000F88F00F013FFFCF757F90098FBF792FBC3
:104A1000012084F82A0026620026A66167621648F3
:104A2000E661C4E9000AA4F828800B98A060C4E9F4
:104A300003B62046666101F0B7FE10490888401CA5
:104A40000880FBF773FB0446FCF726F999F8000091
:104A5000401E10F0FF0089F8000001D100F0F4FEC4
:104A6000FCF72AF92046FBF765FB2E80C7E700001C
:104A7000F000002040010020544D5220840100200D
:104A8000F8B505461D480C46007810B147F2433092
:104A900009E035B11A492868884206D045F6C45065
:104AA00028E047F24230088025E06846FFF778FAB0
:104AB00095F82A00C8B1002601280CD0022807D09A
:104AC000032808D06846FFF799FA47F2413011E011
:104AD000284601F0ABFF0021284601F0F5FE6846AC
:104AE000FFF78CFA26800120F8BD6846FFF786FAAA
:104AF00047F23D3020800020F8BD0000F00000208B
:104B0000544D522010B5FBF711FB0446FCF7C4F8D6
:104B100007490878401C0870FCF7CEF82046FBF7E0
:104B200009FBFFF70FFFBDE81040FFF7B3B9000026
:104B3000F00000204FF0E021401E48610648026866
:104B400022F07F420260086940F0050008610869B0
:104B500040F002000861704720ED00E0704700005F
:104B6000034A00211160034A118001807047000050
:104B700010010020140100202DE9F05F9A469046B4
:104B80000D4604460A9FFBF7D1FA8346FCF784F8EA
:104B90005FEA080024D0012807D0B0F5004F1FD0ED
:104BA0006FF4004118EB010F12D1206A30EA0500C2
:104BB000C4E9080A208A04F108064FF0000990B100
:104BC0004D4D2878401CC0B22870012815D016E041
:104BD000FCF772F85846FBF7ADFA45F625606CE035
:104BE000206A2843E4E7FCF767F85846FBF7A2FA87
:104BF000A7F80090206ABDE8F09F00F017FEFCF7D0
:104C00005BF85846FBF796FA366833E090F8881060
:104C1000766801F00F0101291BD0022921D0042957
:104C20000DD0082910D0FBF781FA0446FCF734F8C0
:104C30002878401E10F0FF0028702AD036E0216A44
:104C4000D0F88020114009E0216AD0F8802011407E
:104C50000BE0D0F88010236A0A4699438A4205D0B7
:104C600007E0D0F88010226A914311B1524600F05B
:104C700047F816B1B0680028C8D1FBF757FA0646C6
:104C8000FCF70AF82878401E10F0FF00287017D0B3
:104C900018E000F0D9FD1948008838B1FCF70CF88D
:104CA0002046FBF747FA00F09DFD04E0FCF704F80E
:104CB0002046FBF73FFA43F6FF20388000209AE7B2
:104CC00000F0C2FDFBF7F8FF3046FBF733FA5FEA6E
:104CD000084001D4FFF726F9FBF728FA0546FBF751
:104CE000DBFF246AFBF7E8FF2846FBF723FAA7F867
:104CF000009020467FE700004001002004010020D2
:104D000070B50025C0F8841080F8355080F8345014
:104D10000446026490F8360008280ED2DFE800F05E
:104D20000D0D04040D0D0A0A204601F093F984F8D4
:104D3000365002E0042084F836002046BDE870407A
:104D400000F059BB0A4C0B4DFBF7F0F90646FBF798
:104D5000A3FF2068401C20602868401C2860FBF7E7
:104D6000ABFF3046FBF7E6F9FEF7B0FFECE70000DB
:104D7000EC0000205801002000B50E4A89B0002147
:104D800011600B2205910691CDE907200A480B4AD4
:104D90000B4B006812681B680292CDE903011F20CB
:104DA000CDE900030023074A07A10C48FFF710FADA
:104DB00009B000BDEC00002010AA00080CAA0008F1
:104DC00008AA0008454D000875432F4F532D494947
:104DD000492049646C65205461736B00DC3200200B
:104DE0002DE9F84F1D46DDE90CB4DDE90AA91646A8
:104DF0000F468046FBF79AF90090FBF74DFF1D48E0
:104E00001D4A0188128891422DD2491C89B2018025
:104E10001A4802888A4200D2018019490868C0F8FD
:104E20000080C0E902760582C0F814A0A0F81890AE
:104E3000C0F81CB040680860124801210181124985
:104E400001604160002000F07BFB1048007808B151
:104E50000F49087000202080FBF72EFF0098BDE866
:104E6000F84FFBF767B90B490888401C088044F2EB
:104E70005360F0E70401002018AA00080601002092
:104E8000FC00002078340020A433002026010020FC
:104E900028010020080100203EB5374C374B02A9FD
:104EA00020680268D51A9A4245D015DC344BD218D6
:104EB0002DD0344BD21822D0334BD21832D0334BB2
:104EC000DA4208D1C269CDE90021038B028AC168A8
:104ED000806801F01DF83EBD2D4AAA181ED02D4B4A
:104EE000D21824D02C4BDA42F5D1C269CDE9002189
:104EF000038B028AC168806800F04EFB3EBD0091C2
:104F0000028BC36941698068FFF736FE3EBD018BA5
:104F1000C269806802AB00F0F5FC3EBD806801F01C
:104F2000A7F83EBD018BC269806802AB21E08068B2
:104F300001F0EEF93EBD19481949007800EB400038
:104F400001EB800000F09EFC206802AB0021C269EA
:104F5000144801F019F914480168491E0160E9D1AB
:104F6000124909680160FBF7F1FE024602AB00211D
:104F70000F4801F009F93EBD000100205449434BA0
:104F8000ADBAB2BE0DF90BFAF2F8F7FF0006F6FF64
:104F900000F7FDF700FFEFFF03FE0FFE28010020E2
:104FA00078340020C03600209401002090010020B9
:104FB000883700201D4D1E4C1E4E00BFFBF7B6F873
:104FC0000746FBF769FE208808B3FBF775FE3846F5
:104FD000FBF7B0F8FBF7BAFE0746FFF75DFFFBF7FC
:104FE000B5FE2968C01B814200D22860FBF79EF8FD
:104FF0000746FBF751FE3068406830602088401E4D
:105000002080FBF759FE3846FBF794F8D6E70A49AB
:10501000002008810860486000F0A2FAFBF74CFE0F
:105020003846FBF787F8FEF77DFFC5E70C01002047
:10503000040100200001002078340020F0B52F4941
:105040002F4D89B000220A80296831B12D4E318858
:10505000022905D244F2546135E044F2526132E053
:1050600029490023294F0A60296801F1200410E032
:1050700041F8087B5B1C41F8082B9BB241F8042CDB
:1050800021F8102B41F80C2C21F8082C41F81C4C6D
:105090002034B6F800C06345EAD32B6841F81C3CC5
:1050A0001B490B601B490B601B490A801B490A8086
:1050B0001B490B6853B11B4B1B4D1C682D68AC4240
:1050C00007D244F25661018009B0F0BD44F2556147
:1050D000F9E7032405920692CDE907401868134BBF
:1050E00009681B68CDE903020092CDE90113002392
:1050F0000F4A10A11648FFF76BF8E5E708010020FA
:1051000014AA000818AA00080C0100204E4F4E45B2
:10511000FC00002000010020040100200601002006
:105120001CAA000824AA00084CAA000820AA00080B
:10513000B54F000875432F4F532D49494920495316
:1051400052205175657565205461736B0000000035
:10515000A4330020034A00211160034A118001801A
:1051600070470000180100201C010020F0B5164C0B
:10517000216859B1154E318859B189B2491E22684A
:105180008FB2002502F1100329460EE045F21E7190
:1051900018E045F21D7115E0E2E802316D1C22F8BD
:1051A000081BADB242F8041C1033BD42F4D31160A9
:1051B00051601181D160064A23681360338893805F
:1051C000D18011810180F0BD34AA000830AA000806
:1051D0006C34002010B5428992B10A4903680C680A
:1051E0001C6043680B60CB8844891B1BCB808B8879
:1051F000448923448B800021418181810160416089
:10520000104610BD6C340020018100214181818154
:105210000160416070470000F0B54489DDE905E7B1
:105220000589AC4202D346F293501EE01B4DAE8876
:10523000CEB12C68761ED4F800C0C5F800C0AE8090
:10524000EE88761CB6B2EE80B5F808C0B44500D240
:105250002E814689002556B1DB060ED403681C60FA
:10526000046025600CE045F21D703880F0BD0460DC
:10527000012344604381256005E043682360446066
:1052800043895B1C4381868943899E4200D2838186
:1052900061602281C4F80CE03D80F0BD6C340020D8
:1052A000034A00211160034A118001807047000009
:1052B00020010020240100202DE9F041114D074676
:1052C0000C4628680026194680F8342080F835609E
:1052D00000F066FD64B1FC6004F108060122394665
:1052E000286800F011F83946304600F057F802E01F
:1052F0002868C687066320462968BDE8F04100F0AB
:105300001BB800009801002010B5C2870024234676
:1053100001630EE04B6041F8103B641C41F8103B08
:10532000A4B241F80C3C21F8083C41F8043C41F897
:10533000180C9442EED310BD38B14268C1F8C420B5
:1053400081688968096AC161704791F83400022850
:1053500003D0072803D004A002E004A000E005A0C9
:10536000C1F8C40070470000200000005461736B56
:10537000205100005461736B2053656D00000000E4
:1053800005A2C1F8C420816811B18968096A00E0EA
:1053900001A1C161704700002000000030B58A689B
:1053A000002392F8374002891AB1521C0281026828
:1053B0000BE0012202814B600B60016014E09568F4
:1053C00095F83750A54203D85268002AF7D107E074
:1053D00032B1146854B1C1E900426160116030BD5E
:1053E0004B6042680A605160416030BD1160C1E9A4
:1053F0000032016030BD70B50646C48F056B07E012
:10540000E8682946083000F009F8641EA4B2203587
:10541000002CF5D10020F087306370BD10B50289F3
:105420000023012A0BD00A6862B14C6874B1546041
:1054300022600289521E02814B600B6010BD036026
:105440004360F6E74A6813600260F2E75360426027
:10545000EFE7F8B50C46064691F836100025069899
:1054600008293BD2DFE801F03A3A04043A3A202016
:1054700094F83410032911D0E265A4F86030206458
:1054800036B12046FFF7B7FF21463046FFF778FFD9
:10549000204600F0DFFD84F836501BE000902146E6
:1054A000304600F022F8EBE794F83410032916D0C8
:1054B000E265A4F860302064204601F01FF836B1A0
:1054C0002046FFF798FF21463046FFF759FF04209A
:1054D00084F8360084F8355084F83450F8BD0090D4
:1054E0002146304600F001F8E6E770B50C6B049DEC
:1054F000C98F0AE0E668864204D1C4E90402238326
:10550000E56170BD491E89B220340029F2D170BD19
:1055100010B50024064802E02034E4B2001D016802
:105520000029F9D00846FAF70CFE2044C0B210BD9D
:10553000CC0000200149002008607047CC0000200A
:1055400000F01F0241090120C2F11F029040034AEE
:1055500052F82130034342F821307047CC0000203C
:1055600000F01F0241090120C2F11F029040034ACE
:1055700052F82130834342F821307047CC0000209C
:10558000034A00211160034A118001807047000026
:105590002C010020300100202DE9FF4F83B01F4671
:1055A000DDE9109A93460646FAF7C0FD0546FBF77B
:1055B00073FB384C2078401CC0B22070012801D108
:1055C00000F034F9FBF778FB2846FAF7B3FD358A8B
:1055D00006F108001DB1B90530D500683CE0F806B9
:1055E00001D4002300E01023CDE9009A5A4606F1C9
:1055F00020000499FFF710FEFAF798FD0546FBF727
:105600004BFB2078401E10F0FF0121700ED100F0FE
:105610001BF92148008848B1FBF74EFB2846FAF7F2
:1056200089FD07B0BDE8F04F00F0DCB8FBF744FBA4
:1056300007B02846BDE8F04FFAF77CBD00680125A9
:105640005B46D0E90181CDF800903046049AFFF71F
:1056500000FF6D1E4046ADB2002DF1D1FAF766FD98
:105660000546FBF719FB2078401E10F0FF00207064
:1056700001D100F0E9F8FBF71FFB2846FAF75AFDC5
:10568000380401D4FEF74EFC0021AAF8001007B040
:10569000BDE8F08F40010020040100200020074BEE
:1056A000014600BF00EB400203EB8202401C118167
:1056B0001160C0B251602028F4D3704778340020C4
:1056C00010B5044690F83700FFF73AFF074994F801
:1056D000370009788842204603D1BDE8104000F029
:1056E00023B8BDE8104000F003B8000026010020F8
:1056F00090F837100B4A01EB410102EB81010022C7
:105700000B8943B15B1C0B810B68C0E903320A684B
:1057100010610860704701230B81C260026108605C
:10572000486070477834002090F837100A4A01EB3F
:10573000410102EB810100220B893BB15B1C0B8113
:10574000C2604A680261D0604860704701230B81E3
:10575000C26002610860F7E77834002010B5028962
:10576000002A14D0012A12D00021022A07D0D0E941
:105770000024D3681961C2E90314E26005E0D0E9AE
:105780000023C2E90313C3E90321C0E9003210BDBD
:1057900070B5054690F83700114900EB400001EB69
:1057A0008001D5E90302002442B10B895B1E0B8105
:1057B000D06090B102612C61EC6070BD28B10A89A3
:1057C000521E0A8104610860F5E70C810C604C6090
:1057D00095F83700FFF7C4FEEDE74A60EBE70000FD
:1057E0007834002010B5FAF7A1FC0B4A00211170A3
:1057F0000B4A0A49116051F8902F521C0A6009495E
:105800000A68521C0A60084A4FF080511160BDE8D6
:105810001040FAF78FBC000027010020A4330020BD
:105820009C0100206C01002004ED00E0044810B54C
:105830000078012803D1FBF789FA0249086010BDFE
:1058400040010020340100200A4810B500780028EB
:105850000ED1FBF77BFA08490968401A07490A6824
:10586000824200D2086006490A68824200D208607B
:1058700010BD00004001002034010020380100204C
:105880003C01002070B5044614480078012824D15A
:10589000FAF74CFC0546FBF7FFF92168B1B1104857
:1058A000814213D08A6D12B1521E8A650ED12089B1
:1058B00002280BD30B48007840B92046FFF74EFF73
:1058C0002068416D09B9084909688165FBF7F4F959
:1058D0002846BDE87040FAF72DBC70BD4801002095
:1058E000DC3200204001002044010020034A002156
:1058F0001160034A11800180704700004C010020B4
:10590000500100202DE9F84F1E4690468946044676
:10591000FAF70CFC0090FBF7BFF9208A04F10807A6
:105920004FF0000B50B1DFF8BCA09AF80010491CF2
:10593000C9B28AF8001001291AD01BE0256A681C38
:105940000CD06D1CC4E90858FBF7B6F90098FAF7BB
:10595000F1FBA6F800B02846BDE8F88FFBF7ACF9DC
:105960000098FAF7E7FB46F6C55030800020F3E7D1
:10597000FFF75CFFFBF7A0F90098FAF7DBFB5FEAA3
:10598000895002D53D893F680CE03F68012500231E
:10599000B9687F681A462046CDF80080FFF759FDA8
:1059A0006D1EADB2002DF2D1246AFAF7BFFB054699
:1059B000FBF772F99AF80000401E10F0FF008AF819
:1059C000000001D1FFF740FFFBF776F92846FAF710
:1059D000B1FB5FEA094001D4FEF7A4FAA6F800B0D3
:1059E0002046B9E74001002000B58BB009A8FEF7BA
:1059F00075F9002009A9032205900690CDE9072139
:105A00000C2202928021CDE90310074B0420CDE93E
:105A100000030023054A06A10848FEF7D9FB09A8A0
:105A2000FEF726FB0BB000BDA80100203D6D00086D
:105A30005461736B5F53746172740000A805002099
:105A40000EB5964C964E2068450004E028466A46FE
:105A50000021FEF701FF30780128F7D16846FEF7F4
:105A600033FB904822680168914206D90A462168B2
:105A7000B2FBF1F15FEA010803D100680A21B0FB33
:105A8000F1F8DFF824B2894F42F2107A5FF0000695
:105A9000FBF75CF90190FBF7F1F885490860FAF72C
:105AA00045FB0546FBF7F8F88248834C0168216006
:105AB0000660FBF701F92846FAF73CFB7F482368AC
:105AC00002689A422BD97E48824202D25046012176
:105AD00015E07C48824203D24FF47A700A210EE02E
